{
  "_format": "hh-sol-artifact-1",
  "contractName": "Faucet",
  "sourceName": "contracts/Faucet.sol",
  "abi": [
    {
      "inputs": [],
      "name": "call",
      "outputs": [
        {
          "internalType": "uint256",
          "name": "",
          "type": "uint256"
        }
      ],
      "stateMutability": "nonpayable",
      "type": "function"
    }
  ],
  "bytecode": "0x6080604052348015600f57600080fd5b50609a8061001e6000396000f3fe6080604052348015600f57600080fd5b506004361060285760003560e01c806328b5e32b14602d575b600080fd5b60336049565b6040518082815260200191505060405180910390f35b6000806000815480929190600101919050555060005490509056fea2646970667358221220070d06a1bb61bc4e42614d635823a1443c91ad68eabbc75a1ce84b558a83111264736f6c63430007030033",
  "linkReferences": {},
  "deployedLinkReferences": {}
}