{
  "_format": "hh-sol-artifact-1",
  "contractName": "TransferDemo",
  "sourceName": "contracts/TransferDemo.sol",
  "abi": [
    {
      "stateMutability": "payable",
      "type": "fallback"
    },
    {
      "inputs": [],
      "name": "getBalanceOfContract",
      "outputs": [
        {
          "internalType": "uint256",
          "name": "",
          "type": "uint256"
        }
      ],
      "stateMutability": "view",
      "type": "function"
    },
    {
      "inputs": [],
      "name": "transderToContract",
      "outputs": [],
      "stateMutability": "payable",
      "type": "function"
    },
    {
      "stateMutability": "payable",
      "type": "receive"
    }
  ],
  "bytecode": "0x608060405234801561001057600080fd5b5060e78061001f6000396000f3fe60806040526004361060295760003560e01c806322968885146031578063460968dd14605957602f565b36602f57005b005b348015603c57600080fd5b5060436061565b6040518082815260200191505060405180910390f35b605f6069565b005b600047905090565b3073ffffffffffffffffffffffffffffffffffffffff166108fc349081150290604051600060405180830381858888f1935050505015801560ae573d6000803e3d6000fd5b5056fea264697066735822122051a93d14b5bb811ce2cd9f87c7645c97ea2d2d52c0fe600d32fad0c660e0238364736f6c63430007030033",
  "linkReferences": {},
  "deployedLinkReferences": {}
}