{
  "_format": "hh-sol-artifact-1",
  "contractName": "InvokeTest",
  "sourceName": "contracts/InvokeTest.sol",
  "abi": [
    {
      "anonymous": false,
      "inputs": [
        {
          "indexed": true,
          "internalType": "address",
          "name": "contractAdd",
          "type": "address"
        },
        {
          "indexed": false,
          "internalType": "uint8",
          "name": "age",
          "type": "uint8"
        },
        {
          "indexed": true,
          "internalType": "string",
          "name": "name",
          "type": "string"
        }
      ],
      "name": "testEvent",
      "type": "event"
    },
    {
      "inputs": [
        {
          "internalType": "string",
          "name": "_name",
          "type": "string"
        }
      ],
      "name": "getAge",
      "outputs": [
        {
          "internalType": "uint8",
          "name": "",
          "type": "uint8"
        }
      ],
      "stateMutability": "view",
      "type": "function"
    },
    {
      "inputs": [
        {
          "internalType": "string",
          "name": "_name",
          "type": "string"
        },
        {
          "internalType": "uint8",
          "name": "_age",
          "type": "uint8"
        }
      ],
      "name": "setStudent",
      "outputs": [
        {
          "internalType": "bool",
          "name": "",
          "type": "bool"
        }
      ],
      "stateMutability": "nonpayable",
      "type": "function"
    }
  ],
  "bytecode": "0x608060405234801561001057600080fd5b5061044e806100206000396000f3fe608060405234801561001057600080fd5b50600436106100365760003560e01c80630cc788411461003b578063d83880f014610119575b600080fd5b6101016004803603604081101561005157600080fd5b810190808035906020019064010000000081111561006e57600080fd5b82018360208201111561008057600080fd5b803590602001918460018302840111640100000000831117156100a257600080fd5b91908080601f016020809104026020016040519081016040528093929190818152602001838380828437600081840152601f19601f820116905080830192505050505050509192919290803560ff1690602001909291905050506101eb565b60405180821515815260200191505060405180910390f35b6101d26004803603602081101561012f57600080fd5b810190808035906020019064010000000081111561014c57600080fd5b82018360208201111561015e57600080fd5b8035906020019184600183028401116401000000008311171561018057600080fd5b91908080601f016020809104026020016040519081016040528093929190818152602001838380828437600081840152601f19601f8201169050808301925050505050505091929192905050506102fc565b604051808260ff16815260200191505060405180910390f35b6000600160405180604001604052808581526020018460ff168152509080600181540180825580915050600190039060005260206000209060020201600090919091909150600082015181600001908051906020019061024c92919061037b565b5060208201518160010160006101000a81548160ff021916908360ff1602179055505050816000846040518082805190602001908083835b602083106102a75780518252602082019150602081019050602083039250610284565b6001836020036101000a038019825116818451168082178552505050505050905001915050908152602001604051809103902060006101000a81548160ff021916908360ff1602179055506001905092915050565b600080826040518082805190602001908083835b602083106103335780518252602082019150602081019050602083039250610310565b6001836020036101000a038019825116818451168082178552505050505050905001915050908152602001604051809103902060009054906101000a900460ff169050919050565b828054600181600116156101000203166002900490600052602060002090601f016020900481019282601f106103bc57805160ff19168380011785556103ea565b828001600101855582156103ea579182015b828111156103e95782518255916020019190600101906103ce565b5b5090506103f791906103fb565b5090565b5b808211156104145760008160009055506001016103fc565b509056fea2646970667358221220ddb6ed2ab36eeac1341a74eeccabc1f3e17fe2783ad28033c4b321f6999aa8d364736f6c63430007030033",
  "linkReferences": {},
  "deployedLinkReferences": {}
}